:100000000C9463000C948B000C948B000C948B006C
:100010000C948B000C948B000C948B000C948B0034
:100020000C948B000C948B000C948B000C948B0024
:100030000C948B000C948B000C948B000C948B0014
:100040000C9418010C948B000C948B000C948B0076
:100050000C948B000C948B000C948B000C948B00F4
:100060000C948B000C948B000000000024002700EF
:100070002A0000000000250028002B0000000000DE
:1000800023002600290004040404040404040202DA
:100090000202020203030303030301020408102007
:1000A0004080010204081020010204081020000012
:1000B0000007000201000003040600000000000029
:1000C0000000D400CD0011241FBECFEFD8E0DEBF6A
:1000D000CDBF11E0A0E0B1E0E4E9FCE002C0059092
:1000E0000D92A830B107D9F711E0A8E0B1E001C046
:1000F0001D92AA32B107E1F710E0C4ECD0E004C0D1
:100100002297FE010E943906C23CD107C9F70E941E
:10011000AD020C948D000C940000F8940C943D06F4
:10012000DC0101C06D9341505040E0F70895EF921B
:10013000FF920F931F938C01E62EF42E0E9464040D
:10014000F801E48AF38AC80168E20E943B038F2D1C
:1001500061E00E945902C8010E9481031F910F9122
:10016000FF90EF90089508958130910561F46F5FDD
:100170007F4F91F488E091E06CE070E04CE023E088
:100180000E9497000895892B39F46F5F7F4F21F407
:1001900088E091E00E945404089580E090E06FEFC1
:1001A0007FEF0E94B400089581E090E06FEF7FEF51
:1001B0000E94B4000895EF92FF920F931F93CF9384
:1001C000DF937B018C01C0E0D0E016C088E091E0B5
:1001D000BE01A80197010E94BC0288E091E00E9444
:1001E00091036091000170910101882777FD80954E
:1001F000982F0E948601219680911C0190E0C817DB
:10020000D90724F3DF91CF911F910F91FF90EF90C9
:10021000089586E960E040E00E941B030E94DB0035
:1002200080E066E940E00E941B030E94DB00089525
:100230001F920F920FB60F9211242F933F938F931B
:100240009F93AF93BF938091210190912201A09140
:100250002301B0912401309125010196A11DB11D0A
:10026000232F2D5F2D3720F02D570196A11DB11D95
:10027000209325018093210190932201A0932301D3
:10028000B093240180911D0190911E01A0911F0146
:10029000B09120010196A11DB11D80931D01909385
:1002A0001E01A0931F01B0932001BF91AF919F91B8
:1002B0008F913F912F910F900FBE0F901F90189527
:1002C0009FB7F89420911D0130911E0140911F01AC
:1002D0005091200186B5A89B06C08F3F21F02F5F6B
:1002E0003F4F4F4F5F4F9FBF542F432F322F222737
:1002F000280F311D411D511D82E0220F331F441F65
:10030000551F8A95D1F7B901CA0108959B01AC0127
:100310007FB7F89480911D0190911E01A0911F015B
:10032000B091200166B5A89B05C06F3F19F00196FA
:10033000A11DB11D7FBFBA2FA92F982F8827860F27
:10034000911DA11DB11D62E0880F991FAA1FBB1F3F
:100350006A95D1F7BC012DC0FFB7F89480911D01BB
:1003600090911E01A0911F01B0912001E6B5A89BBC
:1003700005C0EF3F19F00196A11DB11DFFBFBA2FB7
:10038000A92F982F88278E0F911DA11DB11DE2E086
:10039000880F991FAA1FBB1FEA95D1F7861B970BE1
:1003A000885E9340C8F22150304040405040685130
:1003B0007C4F211531054105510571F6089578945A
:1003C00084B5826084BD84B5816084BD85B582605A
:1003D00085BD85B5816085BDEEE6F0E080818160F8
:1003E0008083E1E8F0E010828081826080838081F8
:1003F00081608083E0E8F0E0808181608083E1EBD0
:10040000F0E0808184608083E0EBF0E080818160B7
:100410008083EAE7F0E0808184608083808182606D
:100420008083808181608083808180688083109256
:10043000C1000895CF93DF93482F50E0CA0186563C
:100440009F4FFC0134914A575F4FFA0184918823F2
:1004500069F190E0880F991FFC01E859FF4FA591C1
:10046000B491FC01EE58FF4FC591D491662351F42D
:100470002FB7F8948C91932F909589238C93888132
:1004800089230BC0623061F42FB7F8948C91932FBD
:10049000909589238C938881832B88832FBF06C0F6
:1004A0009FB7F8948C91832B8C939FBFDF91CF9152
:1004B0000895482F50E0CA0182559F4FFC012491B6
:1004C000CA0186569F4FFC0194914A575F4FFA012B
:1004D0003491332309F440C0222351F1233071F0C9
:1004E000243028F42130A1F0223011F514C0263038
:1004F000B1F02730C1F02430D9F404C080918000DD
:100500008F7703C0809180008F7D8093800010C022
:1005100084B58F7702C084B58F7D84BD09C080917A
:10052000B0008F7703C08091B0008F7D8093B000C2
:10053000E32FF0E0EE0FFF1FEE58FF4FA591B491AF
:100540002FB7F894662321F48C919095892302C0EB
:100550008C91892B8C932FBF0895CF93DF930E94AA
:10056000DF010E94B300C0E0D0E00E9409012097A3
:10057000E1F30E940000F9CF0F931F93CF93DF9315
:10058000EC01888199816817790708F04FC0CA018A
:10059000AA27BB27182FBB27A52F942F832F082FFF
:1005A000422F2D81222359F130E0812F90E0FC0170
:1005B000E29FC001E39F900DF29F900D1124892FBF
:1005C000990F990B182F802F90E0FC01E29FC0013A
:1005D000E39F900DF29F900D1124892F990F990B95
:1005E000082F842F90E0AC01429FC001439F900DE3
:1005F000529F900D1124892F990F990B482FCB01F1
:10060000880F991F860F971FEE81FF81E80FF91F52
:100610008885DF01A80FB11D1C938985DF01A80F14
:10062000B11D0C938A85E80FF11D4083DF91CF91B6
:100630001F910F9108950F931F93062F10E020E054
:1006400030E0322F212F102F002750E060E070E0C3
:10065000042B152B262B372B90E0A0E0B0E0DC011B
:1006600099278827082B192B2A2B3B2BB801C90166
:100670001F910F910895FF920F931F93CF93DF93D4
:10068000EC01862FF62EF3942D81F216A1F10E8146
:100690001F81622F615019F420E030E014C08F3FB9
:1006A00059F4262F30E040E050E06FEF7FEF80E01C
:1006B00090E00E94FA0507C09F2D80E0019770E04E
:1006C0000E94E6059B0160E070E00FC0F8018081A8
:1006D00090E0AC01249FC001259F900D349F900DA8
:1006E000112491938F016F5F7F4F8A819B816817DF
:1006F000790760F3FD82DF91CF911F910F91FF90F9
:1007000008950F931F938C01FC01848161E00E9486
:100710001A02F801848160E00E9459021F910F9132
:100720000895EF92FF920F931F93DF93CF93CDB76E
:10073000DEB727970FB6F894DEBF0FBECDBF8C0192
:10074000DC0116968D919C911797892B09F49FC017
:100750000E946001F8012485358546855785621B16
:10076000730B840B950B623371058105910580F342
:10077000F894D80112968D919C9113979F838E8344
:100780001696ED90FC901797F70181917F01898370
:100790001B968C911B975096ED91FC915197529618
:1007A0009C9181FF30C08081892B8A8380819095C4
:1007B00098239B838B818D8388E08C836A815B8106
:1007C00029813C814D818E819F81D701608327FDE6
:1007D000462F3A954083452F39F0221F00C0000074
:1007E0005083000000C0F2CF38E02D91508300000C
:1007F000019761F7D8015196FC93EE9350972983A6
:100800003C834D833AC08081892B8A838081909577
:1008100098239B838B818C8388E08D836A815B81A5
:1008200029813D814C818E819F81D701608327FD85
:10083000462F00C000C0408300C000C000C000C000
:1008400000C050830000452F3A9541F0221F000060
:1008500000C000C000C000C000C0E8CF38E02D914B
:1008600000C0508300C0019709F7D8015196FC934E
:10087000EE93509729833D834C839F838E83789496
:100880000E946001F801648775878687978727969D
:100890000FB6F894DEBF0FBECDBFCF91DF911F9191
:1008A0000F91FF90EF900895CF93DF93EC018E812D
:1008B0009F81009711F00E944E058C8160E00E949C
:1008C0001A02DF91CF9108951F93CF93DF93EC012C
:1008D000122F79836883CB01880F991F860F971F8A
:1008E0009B838A834C831D821F821E822B871C86DA
:1008F0001D861E861F8650E0FA01EA57FF4FE491DD
:10090000F0E0EE0FFF1FEE58FF4F25913491398B29
:10091000288B46565F4FFA0144914A8B0E94B104DE
:100920009F838E83009731F04A815B8160E070E0A5
:100930000E94900010FF04C081E0888719860BC0D8
:1009400012FF06C081E0888782E089871A8605C089
:10095000188681E0898782E08A87DF91CF911F9195
:1009600008950F931F93CF93DF93BC0182309105BD
:1009700010F462E070E0E0912801F0912901A0E01C
:10098000B0E040E050E024C0808191818617970755
:10099000D0F08617970771F482819381109729F020
:1009A00013969C938E9312972CC090932901809359
:1009B000280127C04115510519F08417950718F42F
:1009C000EF018D01AC01DF01828193819C01F9016E
:1009D0003097D1F641155105F9F0CA01861B970BE6
:1009E0008430910580F48A819B810115110521F0E5
:1009F000F8019383828304C0909329018093280196
:100A0000FE01329645C0FE01E80FF91F6193719314
:100A10000297998388833CC0809126019091270199
:100A2000892B41F480910401909105019093270155
:100A3000809326014091060150910701411551050F
:100A400041F44DB75EB78091020190910301481BBC
:100A5000590B209126013091270124173507B0F456
:100A6000CA01821B930B8617970780F0AB014E5F7C
:100A70005F4F8417950750F0420F531F5093270183
:100A800040932601F9016193719302C0E0E0F0E028
:100A9000CF01DF91CF911F910F910895CF93DF93F5
:100AA0009C01009709F48FC0EC0122971B821A82E7
:100AB00060912801709129016115710581F4888187
:100AC0009981820F931F20912601309127012817C9
:100AD000390739F5D0932701C093260174C0DB0193
:100AE00040E050E0AC17BD0708F1BB83AA83FE01CC
:100AF00021913191E20FF31FAE17BF0779F48D9169
:100B00009C911197280F391F2E5F3F4F39832883FF
:100B100012968D919C9113979B838A834115510561
:100B200071F4D0932901C09328014DC012968D9184
:100B30009C911397AD01009711F0DC01D3CFDA013E
:100B40001396DC93CE931297FA0121913191E20F23
:100B5000F31FCE17DF0769F488819981280F391FA9
:100B60002E5F3F4FFA01318320838A819B819383DB
:100B70008283E0E0F0E0DB0112968D919C91139767
:100B8000009719F0BC01FD01F6CFAB014E5F5F4F3E
:100B9000DB018D919C91840F951F2091260130914E
:100BA00027012817390779F4309729F41092290181
:100BB0001092280102C0138212824250504050937A
:100BC000270140932601DF91CF910895AA1BBB1BFB
:100BD00051E107C0AA1FBB1FA617B70710F0A61B3D
:100BE000B70B881F991F5A95A9F780959095BC015E
:100BF000CD01089597FB092E05260ED057FD04D090
:100C000014D00AD0001C38F45095409530952195A9
:100C10003F4F4F4F5F4F0895F6F790958095709531
:100C200061957F4F8F4F9F4F0895A1E21A2EAA1B07
:100C3000BB1BFD010DC0AA1FBB1FEE1FFF1FA2178C
:100C4000B307E407F50720F0A21BB30BE40BF50B89
:100C5000661F771F881F991F1A9469F76095709512
:100C6000809590959B01AC01BD01CF010895EE0FD9
:100C7000FF1F0590F491E02D099410E0C4ECD0E042
:100C800004C0FE010E9439062296C63CD107C9F76E
:040C9000F894FFCF06
:080C94004B0080002A01000062
:00000001FF
